:100000000428FF3FFF3FFF3F453003138312B40036
:100010006E30B5007430B6002030B7005030B800F4
:100020006130B9007330BA007330BB003A30BC00A5
:10003000BD012A30BE00BF014F30C0005030C100AA
:100040004530C2004E30C300C4014530C5005230B7
:10005000C6004F30C7005230C8005230C900CA0134
:100060004C30CB004F30CC004330CD004B30CE0075
:100070004530CF004430D000D1010130A400003021
:10008000A5000F3083168600803087008312870119
:10009000D3010130D400BC23013003138312D300F9
:1000A0000230D400BC23023003138312D300033088
:1000B000D400BC23033003138312D3000430D400D4
:1000C000BC23043003138312D3000530D400BC23B7
:1000D000083003138312D300EF220130D8003B23F2
:1000E0003430D300D8230230FC00FF30FB00FF3057
:1000F000FA00FC0B7C288328FB0B7F288228FA0B54
:100100007F287C2879288730FB00FF30FA00FB0B22
:100110008A288D28FA0B8A2887289330FA00FA0B50
:100120008F280000A601A701A801A9018030F000D6
:10013000803029067002031D9F282808043C031CF8
:100140004E2A50227008AA007108AB0000307106D8
:10015000031DAC28143070060319A12805302807A8
:10016000D3002A08D400BC238030031383122B064B
:10017000F00080307002031DBF280A302A020318E5
:10018000CB2830302A07AC002B080318013FAD0004
:100190000030AD07D42837302A07AC002B080318ED
:1001A000013FAD000030AD0700302B06031DDA28FB
:1001B0000B302A06031DE0280130D8003B236D28B0
:1001C0003E30D300D8230430FC00FF30FB00FF306A
:1001D000FA00FC0BEC28F328FB0BEF28F228FA0BB3
:1001E000EF28EC28E9289130FB00FF30FA00FB0BE8
:1001F000FA28FD28FA0BFA28F728AF30FA00FA0B94
:10020000FF28000050227008AA007108AB000030DF
:100210007106031D0D2914307006031902290030E0
:100220002B06031D15290A302A06031D4A2AAE0192
:10023000AF018030F00080302F067002031D2229AC
:100240002E08043C031C472900302706031D2A29D9
:1002500000302606031D43292E08D300062470080B
:100260000313D20005302E07D300062470080313B1
:100270005202F000F101031CF1037008A607710897
:100280000318013FA707AE0A0319AF0A1929003066
:100290002706031D4D2900302606031DF2290130D3
:1002A000A4000030A5000230D3000130D40040305B
:1002B000D500792301308700E830B0000330B10069
:1002C0008030F000803031067002031D692930084B
:1002D000023C031889290D30FB00FF30FA00FB0BAC
:1002E00072297529FA0B72296F29F330FA00FA0B7B
:1002F000772900000708F000F00D701070088700E3
:10030000071E8429013087000130B002031CB103AD
:1003100060291A30FC00FF30FB00FF30FA00FC0BB4
:1003200092299929FB0B95299829FA0B952992294D
:100330008F297F30FB00FF30FA00FB0BA029A32997
:10034000FA0BA0299D295830FA00FA0BA5290000C4
:100350000000E830B0000330B1008030F0008030A1
:1003600031067002031DB6293008023C0318D82953
:100370000D30FB00FF30FA00FB0BBF29C229FA0B3E
:10038000BF29BC29F330FA00FA0BC4290000070882
:10039000F000F00CF013700887000708003A031D06
:1003A000D329083087000130B002031CB103AD2906
:1003B000B201B30180303306F00080307002031DBB
:1003C000E329053032020318F12905303207D30042
:1003D0001330D400BC2303138312B20A0319B30AE7
:1003E000DA296D280230D3000130D4004530D50021
:1003F0007923A40A0319A50A0330FC00FF30FB008F
:10040000FF30FA00FC0B052A0C2AFB0B082A0B2AEA
:10041000FA0B082A052A022A8C30FB00FF30FA006A
:10042000FB0B132A162AFA0B132A102AA130FA0002
:10043000FA0B182A000000302506031D212A04307B
:100440002406031D4A2A0330FC00FF30FB00FF3066
:10045000FA00FC0B2C2A332AFB0B2F2A322AFA0B28
:100460002F2A2C2A292A8C30FB00FF30FA00FB0BA4
:100470003A2A3D2AFA0B3A2A372AA130FA00FA0B17
:100480003F2A00000230D3000130D4004B30D500A9
:100490007923232AA80A0319A90A962873284F2A20
:1004A000143003138312A2000030A3000616861234
:1004B000061301300605F2007208013A031D642A92
:1004C0000130A2000030A300003086180130F20095
:1004D0007208013A031D702A0430A2000030A30004
:1004E000003006190130F2007208013A031D7C2A1F
:1004F0000730A2000030A300003086190130F2005E
:100500007208013A031D882A0A30A2000030A300B5
:1005100006128616061301300605F2007208013A2B
:10052000031D962A0230A2000030A3000030861876
:100530000130F2007208013A031DA22A0530A20020
:100540000030A300003006190130F2007208013AB1
:10055000031DAE2A0830A2000030A3000030861927
:100560000130F2007208013A031DB82AA201A3016A
:1005700006128612061701300605F2007208013ACB
:10058000031DC62A0330A2000030A30000308618E5
:100590000130F2007208013A031DD22A0630A2008F
:1005A0000030A300003006190130F2007208013A51
:1005B000031DDE2A0930A2000030A3000030861996
:1005C0000130F2007208013A031DEA2A0B30A20042
:1005D0000030A3002208F0002308F1000800EC23FB
:1005E000EC23EC235308A0005308840084178011E7
:1005F0000011001080130013801200128413801168
:1006000000110010801300138012001280160016D3
:1006100080158011EC2380158011EC23801580114A
:10062000EC238016001280158011EC2380018016C7
:10063000801580118001801780158011EC238001C6
:10064000001680158011800180158011EC23800137
:1006500080158011001680158011EC238001801513
:100660008011001680160017801780158011EC236A
:100670000130A100080003138312200884005808E9
:100680000319422B801100118013001380120012F5
:10069000D81B8017581B0017D81A8016581A001636
:1006A00021080319552B0011562B001580151A240B
:1006B000580803195B2B801100118013001380125E
:1006C0000012D819801758190017D8188016581812
:1006D0000016210803196E2B00116F2B00158015D1
:1006E0001A24801121080319772BEC23782B12246C
:1006F00008008B2B803003138312D3009E2BC03055
:10070000D3009E2B9430D3009E2BD430D3009E2B4D
:100710008030D3009E2B031383125308013A031930
:100720007A2B5308023A03197F2B5308033A031913
:10073000822B5308043A0319852B882B5403F000AD
:100740005308F0077008D3007008D8003B23A101BC
:10075000D6015608550784000008F00070080319F8
:10076000B92B5608550784000008D700FD23D60A88
:10077000A92B0130A10008000000031783168C1C70
:10078000C32B0000BD2B03138312530803178D00E6
:100790000313540803178C0083168C130C158B134A
:1007A00055308D00AA308D008C148B170C11080069
:1007B00003138312D4015408530784000008F00087
:1007C00070080319EB2B5408530784000008D70066
:1007D000FD23D40ADB2B0800083003138312FB002F
:1007E000FF30FA00FB0BF52BF82BFA0BF52BF22B55
:1007F0001E30FA00FA0BFA2B080003138312A10132
:100800005708D8003B230130A100080003138312CE
:10081000530803178D0083168C130C1483120C08D5
:10082000F0000800103003138312FA00FA0B162CA4
:100830000000080000000800FF3FFF3FFF3FFF3FB0
:02400E00F93F78
:00000001FF
